:020000000029D5
:10020000031383160F178F120F160F14031783167D
:10021000880189010313831686018701051485145B
:1002200088010313831681128111011581140114B1
:10023000031383128601850187018801F1013D3096
:100240008100A001F2017214870A05185A21051CC9
:100250005C2185186521851C67210B1D2D290B113B
:100260003D308100F10A71080A3C031D2429F10187
:10027000880A3D308100031172080F39F200080826
:100280000F397202031D2429880124298A010A14C6
:100290000F3982073F3406345B344F3466346D3493
:1002A0007D3407347F346F3477347F3439343F34CE
:1002B0007934713470140800701C0800A00A2008FA
:1002C00046218600F001F20A0800F0140800F01C34
:1002D0000800A003200846218600F001F203080070
:04400E00D420FF3F7C
:00000001FF
