:020000000029D5
:10020000031383160F178F120F160F14031783167D
:10021000880189010313831686018701051485145B
:10022000880189010313831681128111011581143C
:100230000114031383128601850187018801890156
:10024000F1013D308100A001F301F401F2017214CB
:10025000870A05186B21051C6D2185187621851CE0
:1002600078210B1D31290B113D3081008301F10AEA
:1002700071080A3C031D2829F101880A3D308100DC
:10028000830172080F39F2007208F40008080F3970
:100290007202031D4E298801731428297318890AD4
:1002A00083017408013C0802031D731028298A0188
:1002B0000A140F3982073F3406345B344F346634F6
:1002C0006D347D3407347F346F3477347F34393480
:1002D0003F347934713470140800701C0800A00A8F
:1002E000200857218600F001F20A0800F0140800E7
:1002F000F01C0800A003200857218600F001F2033B
:020300000800F3
:04400E00D420FF3F7C
:00000001FF
