:020000001429C1
:100200008A010A140F3982073F3406345B344F34B5
:1002100066346D347D3407347F346F3477347F3403
:1002200039343F3479347134031383160F178F1226
:100230000F160F1403178316880189010313831601
:100240008601870105148514880103138316811222
:100250008111011581140114031383128601850194
:1002600087018801F1013D308100A001F201870A78
:1002700005184F21051C512185185A21851C5C2128
:100280000B1D40290B113D308100F10A71080A3C19
:10029000031D3729F101880A3D3081003729701488
:1002A0000800701C0800F20AA00A2008002186003D
:1002B000F0010800F0140800F01C0800F203A0038D
:0A02C000200800218600F00108006C
:04400E00D420FF3F7C
:00000001FF
